:020000040000FA
:04000000803114280F
:100008007E1480314E01961E0A280B2812288C1E59
:100018000E280F2812288131612180317E100900B5
:10002800803116288131DF218031FB00FA01203030
:100038008400003085000E308131C02180317E106F
:100048004001813152294001B001B10181310021C3
:10005800803173087602031D332872087502031C69
:10006800362837283C2801304001B0000030B10064
:1000780081310021803176087302031D45287508F7
:100088007202031C482849284C284001B001B101DC
:10009800770875074001AE007808763DAF008131DA
:1000A8000021803140012F087302031D5D282E08AE
:1000B8007202031C6028612864288131A2218031E2
:1000C8004001300808007B0803196B286C28952824
:1000D800FB017A08F000F10170084001AA077108D5
:1000E800AB3D0130AA070030AB3D7A08F000F101C2
:1000F8007008A8077108A93D0130A8070030A93D7C
:100108007A08F000F1017008A6077108A73D0130D0
:10011800A6070030A73DFA010130F0007008FB0087
:1001280099280130F0007008FA070800400198018A
:1001380099019A019201FF309300FF3094007E01EB
:10014800CE01FF30C300FF30B800E501C401B9019A
:10015800CF01BA01C501D001FF30BB00FF30C60096
:10016800FF30D100FF30BC00FF30C700FF30D200A5
:100178000830E800080081317D218031813170210B
:10018800803181310021803181313F2180318131BD
:100198002C2180318131A221803181319621803119
:1001A80081318A2180310030F500F6000030F700F7
:1001B800F800803127208031080040012C03031DFE
:1001C800E628E728F6287B30F5000030F600C8302E
:1001D800F7000130F800803127208031F9007908D4
:1001E8004001AD002C030319FA28FB28FF282C082E
:1001F800F9007908AD0008008131CC2181317B08F4
:100208000319072908291229FB0140012B08A50019
:100218002A08A4000130F4007408FB0040012508F6
:10022800F3002408F200080040304B019F00F93029
:100238009D009C014E018C129616E030F2000130B0
:10024800F3008131D221813180304B019E000800BA
:100258008131CC2181317B080319332934293E2986
:10026800FB0140012708A1002608A0000130F20088
:100278007208FB0008008131CC2181317B08031909
:10028800462947295129FB0140012908A3002808CC
:10029800A2000130F2007208FB0008008031BF2084
:1002A80081318131C62181318031E1208131813133
:1002B800D82181315529803114284E018C124001F2
:1002C80032083304031969296A296F2933088A0017
:1002D80032080A00813108008B170B176730F200CB
:1002E8000030F3008131D22181318131DC2181312B
:1002F80008008131B821813180319A2081318131E2
:10030800AE21813181311821813108008131CC2120
:100318008131FB014001A601A7010130F2007208FA
:10032800FB0008008131CC218131FB014001A8018B
:10033800A9010130F2007208FB0008008131CC21CC
:100348008131FB014001AA01AB010130F2007208C2
:10035800FB000800623051018D008F0191010230CD
:1003680093009001920108004F01960197019801AE
:1003780099019A019B010800640080010131890BF1
:10038800C129003440010E08F2007208AC000800D0
:100398007A08031DD029D129CC2908007308400107
:1003A800B3007208B200080040012D088C00080054
:0A03B8004B019E17080001340800F5
:020000040001F9
:0A000E00EC3FFF3F9F3FFF3FFF3F25
:00000001FF
